:100000000C9462000C948A000C948A000C948A0070
:100010000C948A000C948A000C948A000C948A0038
:100020000C948A000C948A000C948A000C948A0028
:100030000C948A000C948A000C948A000C948A0018
:100040000C9475060C948A000C9443060C941D06BF
:100050000C948A000C948A000C948A000C948A00F8
:100060000C94BF060C948A000000000024002700B6
:100070002A0000000000250028002B0000000000DE
:1000800023002600290004040404040404040202DA
:100090000202020203030303030301020408102007
:1000A0004080010204081020010204081020000012
:1000B0000008000201000003040700000000000027
:1000C00000006F0B11241FBECFEFD8E0DEBFCDBF05
:1000D00023E0A0EAB1E001C01D92AE36B207E1F71D
:1000E00011E0A0E0B1E0EAEEFAE102C005900D9265
:1000F000A03AB107D9F710E0C2E6D0E004C02197DA
:10010000FE010E945B0DC136D107C9F70E94D208DB
:100110000C94730D0C940000CF92DF92EF92FF923B
:100120000F931F93CF93DF936C017A018B01C0E093
:10013000D0E0CE15DF0589F0D8016D918D01D60193
:10014000ED91FC910190F081E02DC6010995892B7C
:1001500011F47E0102C02196ECCFC701DF91CF914F
:100160001F910F91FF90EF90DF90CF900895FC01C9
:10017000538D448D252F30E0842F90E0821B930B0C
:10018000541710F0CF96089501970895FC01918DB2
:10019000828D981761F0828DDF01A80FB11D5D96E9
:1001A0008C91928D9F5F9F73928F90E008958FEF57
:1001B0009FEF0895FC01918D828D981731F0828D0B
:1001C000E80FF11D858D90E008958FEF9FEF089562
:1001D000FC01918D228D892F90E0805C9F4F821BC6
:1001E00091098F73992708958DE592E00E94E800A8
:1001F00021E0892B09F420E0822F0895FC01848DF1
:10020000DF01A80FB11DA35ABF4F2C91848D90E040
:1002100001968F739927848FA689B7892C93A0891B
:10022000B1898C9180648C93938D848D981306C0D2
:100230000288F389E02D80818F7D80830895EF927D
:10024000FF920F931F93CF93DF93EC0181E0888F90
:100250009B8D8C8D981305C0E889F989808185FD77
:1002600024C0F62E0B8D10E00F5F1F4F0F73112768
:10027000E02E8C8DE8120CC00FB607FCFACFE8898F
:10028000F989808185FFF5CFCE010E94FE00F1CF74
:100290008B8DFE01E80FF11DE35AFF4FF0820B8FAB
:1002A000EA89FB898081806207C0EE89FF896083CB
:1002B000E889F98980818064808381E090E0DF9122
:1002C000CF911F910F91FF90EF900895CF93DF93FF
:1002D000EC01888D8823C9F0EA89FB89808185FD3E
:1002E00005C0A889B9898C9186FD0FC00FB607FC9F
:1002F000F5CF808185FFF2CFA889B9898C9185FFE0
:10030000EDCFCE010E94FE00E7CFDF91CF9108959F
:1003100080E090E0892B29F00E94F40081110C9478
:1003200000000895833081F028F4813099F0823004
:10033000A1F008958730A9F08830B9F08430D1F465
:10034000809180008F7D03C0809180008F778093A3
:100350008000089584B58F7702C084B58F7D84BDF9
:1003600008958091B0008F7703C08091B0008F7D99
:100370008093B0000895CF93DF93282F30E0F901E8
:10038000E255FF4F8491F901E656FF4FD491F901F0
:10039000EA57FF4FC491CC2391F081110E94920142
:1003A000EC2FF0E0EE0FFF1FE458FF4FA591B49142
:1003B000EC91ED2381E090E021F480E002C080E048
:1003C00090E0DF91CF9108951F93CF93DF93282F73
:1003D00030E0F901E255FF4F8491F901E656FF4FF5
:1003E000D491F901EA57FF4FC491CC23C9F0162FDD
:1003F00081110E949201EC2FF0E0EE0FFF1FEE58EA
:10040000FF4FA591B4918FB7F894111105C09C913D
:10041000ED2FE095E92302C0EC91ED2BEC938FBF1B
:10042000DF91CF911F910895CF93DF9390E0FC016E
:10043000E656FF4F2491FC01EA57FF4F8491882331
:1004400061F190E0880F991FFC01E859FF4FC591B9
:10045000D491FC01EE58FF4FA591B491611109C0F0
:100460009FB7F8948881209582238883EC912E236E
:100470000BC0623061F49FB7F8943881822F809569
:1004800083238883EC912E2B2C939FBF06C08FB7BC
:10049000F894E8812E2B28838FBFDF91CF910895A8
:1004A0003FB7F8948091100290911102A09112022E
:1004B000B091130226B5A89B05C02F3F19F00196F5
:1004C000A11DB11D3FBFBA2FA92F982F8827820FDA
:1004D000911DA11DB11DBC01CD0142E0660F771F2A
:1004E000881F991F4A95D1F708958F929F92AF92D6
:1004F000BF92CF92DF92EF92FF926B017C010E943C
:1005000050024B015C01C114D104E104F104F1F08B
:100510000E945002DC01CB0188199909AA09BB0984
:10052000883E9340A105B10570F321E0C21AD108BD
:10053000E108F10888EE880E83E0981EA11CB11C2A
:10054000C114D104E104F10419F7DDCFFF90EF905D
:10055000DF90CF90BF90AF909F908F900895DC0177
:10056000ED91FC910284F385E02D09950895DC015D
:10057000ED91FC910190F081E02D0995089564EFD3
:1005800071E080E090E00C94750210923C021092B1
:100590003B02109208021092070210923A0281E088
:1005A000809339021092340261E082E10E94E401FA
:1005B00061E083E10E94E401E9EBF0E080818E7F5D
:1005C000808380818D7F808388E48093B80085E478
:1005D0008093BC00089585ED8093BC008091BC00A1
:1005E00084FDFCCF10923A0208954091E201262F3B
:1005F00030E0240F311D21323105DCF420913A0224
:100600002430C9F4FC0180E090E0861758F4309162
:10061000E2012191DC01A054BE4FA30FB11D2C9328
:100620000196F3CF8091E201680F6093E20180E0D0
:10063000089581E0089582E008950895E0913C02D4
:1006400080913B02E81730F4F0E0E35CFD4F8081DD
:1006500090E008958FEF9FEF089590913C02809174
:100660003B02981750F4E92FF0E0E35CFD4F208146
:1006700030E09F5F90933C0202C02FEF3FEFC90133
:10068000089580913B0290E020913C02821B9109E9
:100690000895CF92DF92EF92FF920F931F93CF9323
:1006A000DF937C01262F972F8A0180910A028823ED
:1006B00091F0C62FD72F6E01C40ED51ECC15DD05C7
:1006C00071F06991D701ED91FC910190F081E02DDD
:1006D000C7010995F3CF642F822F0E94F502C8014C
:1006E000DF91CF911F910F91FF90EF90DF90CF900E
:1006F0000895CF93DF931F92CDB7DEB76983209122
:100700000A022223D1F020910702203240F021E09A
:1007100030E0FC013383228380E090E015C08091BB
:100720000802E82FF0E0E056FE4F998190838F5F3A
:10073000809308028093070205C061E0CE01019614
:100740000E94F50281E090E00F90DF91CF91089533
:100750002091070290910902213208F04AC080914D
:100760003A028111FCCF32E030933A0231E030930B
:1007700039023FEF3093380210923702209336024D
:10078000A0EAB1E044E152E0FA013E2F341B3217F7
:1007900018F43D913193F9CF109235022091350232
:1007A000990F922B9093350290913402913061F41D
:1007B00010923402909135029093BB009091BC004E
:1007C00093FDF8CF95EC01C095EE9093BC0090910D
:1007D0003A029230E1F3909138029F3F79F0809194
:1007E0003802803241F080913802803331F084E069
:1007F00005C081E003C082E001C083E010920802DE
:100800001092070210920A020895089580E090E085
:1008100008950E94610D4F925F927F928F929F92F6
:10082000AF92BF92CF92DF92EF92FF920F931F93FE
:10083000CF93DF9300D000D000D0CDB7DEB78C01CE
:10084000962E772E842E690186E0E4E0F1E0DE0149
:10085000119601900D928A95E1F7E12CF12C46E07A
:1008600064E2F801828193810E94870881110DC0A2
:1008700061E070E080E090E00E947502FFEFEF1A07
:10088000FF0AC114D10449F4EACFF80182819381AF
:100890000E94AF0280FFECCF06C0CE14DF04F8F652
:1008A0008FEF9FEF3FC0F801828193810E94AF02DA
:1008B000811179C0F801828193810E94AF02811178
:1008C00072C0F801828193810E94AF028F3F09F0CC
:1008D0006AC0F801828193810E94AF02F82E81E004
:1008E00080930A0284E28093090210920802109217
:1008F0000702CE0101965C012E0197E0490E511CC2
:10090000F50161915F01F801828193810E94B70234
:10091000A414B504A9F7F801828193810E94A80369
:100920008F2D90E0A12CB12C99277C01F8E0EF0EDF
:10093000F11C4E2D64E2F801828193810E948708A8
:1009400081110DC061E070E080E090E00E947502CE
:10095000FFEFAF1ABF0AC114D10449F4EACFF8017E
:10096000828193810E94AF0280FFECCF06C0CA143F
:10097000DB04F8F68FEF9FEF5FC0F801828193816F
:100980000E94AF02811127C0F801828193810E94E9
:10099000AF02811120C0F801828193810E94AF02D1
:1009A0008F3FC9F403C08DEF9FEFBCCFF801828168
:1009B00093810E94AF02F82EF801828193810E94F8
:1009C000AF028F0D41F4F801E480828193810E948F
:1009D000AF02853D19F08DEF9FEF2EC0F8018281A7
:1009E00093810E94AF0291E09E0D9813F4CFFA9488
:1009F000FA948F14F8F0F6EDEF0EB92CC92CD72C21
:100A0000F801828193812C2D2B192F1538F40E9427
:100A1000AF02F60181936F01E80EF2CF0E94AF02A0
:100A20008E0DC9F6F801828193810E94AF028F2D4D
:100A300090E002C08CEF9FEF26960FB6F894DEBFD1
:100A40000FBECDBFDF91CF911F910F91FF90EF901F
:100A5000DF90CF90BF90AF909F908F907F905F90EE
:100A60004F9008956F927F928F929F92AF92BF9214
:100A7000CF92DF92EF92FF920F931F93CF93DF936A
:100A8000CDB7DEB72C970FB6F894DEBF0FBECDBF43
:100A90007C015B01742E922E832EFB018081F70175
:100AA000848381E080930A0284E280930902109299
:100AB00008021092070260E0828193810E94B702CF
:100AC00060E0F701828193810E94B7026FEFF70126
:100AD000828193810E94B70211E0100F170D612FE0
:100AE000F701828193810E94B702612F6195F7011E
:100AF000828193810E94B70264EDF7018281938124
:100B00000E94B7026A2C650114ED8C2D8619871599
:100B100098F45601F6016081F701828193810E9469
:100B2000B702811102C08DEF73C0FFEFCF1ADF0A49
:100B3000F5018081180FE9CFB92CC92CD82CF70109
:100B4000828193812C2D2B19201770F44601F60118
:100B500060810E94B702882331F3FFEFCF1ADF0ACA
:100B6000F4018081180FEBCF612F61950E94B702CD
:100B700060E0F701828193810E94B702F7018281D0
:100B800093810E94A80386E0EAE0F1E0DE01179677
:100B900001900D928A95E1F70BE010E047E064E2E6
:100BA000F701828193810E94870881110BC061E067
:100BB00070E080E090E00E9475020150110971F729
:100BC0008EEF26C0F701828193810E94AF0280FFE1
:100BD000EECF8E010F5F1F4F680186E0B82EB00E7A
:100BE000F701828193810E94AF02F60181936F0128
:100BF000BE12F6CF46E050E0BE01695F7F4FC801EC
:100C00000E94660D21E0892B09F420E0822F819556
:100C10002C960FB6F894DEBF0FBECDBFDF91CF91FB
:100C20001F910F91FF90EF90DF90CF90BF90AF900A
:100C30009F908F907F906F9008951F920F920FB6A4
:100C40000F9211242F933F934F935F936F937F9352
:100C50008F939F93AF93BF93EF93FF938DE592E0B4
:100C60000E94FE00FF91EF91BF91AF919F918F91F4
:100C70007F916F915F914F913F912F910F900FBE98
:100C80000F901F9018951F920F920FB60F9211247C
:100C90002F938F939F93EF93FF93E0916D02F091C9
:100CA0006E028081E0917302F091740282FD12C0A5
:100CB0009081809176028F5F8F73209177028217E7
:100CC00051F0E0917602F0E0E35AFD4F958F80936A
:100CD000760201C08081FF91EF919F918F912F91BA
:100CE0000F900FBE0F901F9018951F920F920FB686
:100CF0000F9211242F933F938F939F93AF93BF93A2
:100D000080910C0290910D02A0910E02B0910F0201
:100D100030910B0223E0230F2D3720F40196A11D03
:100D2000B11D05C026E8230F0296A11DB11D209319
:100D30000B0280930C0290930D02A0930E02B093CD
:100D40000F028091100290911102A0911202B091B5
:100D500013020196A11DB11D809310029093110200
:100D6000A0931202B0931302BF91AF919F918F9104
:100D70003F912F910F900FBE0F901F9018951F92CB
:100D80000F920FB60F9211242F933F934F935F93BF
:100D90006F937F938F939F93AF93BF93EF93FF9343
:100DA0008091B900887F803609F49CC068F588324C
:100DB00009F45BC090F4803109F454C038F48823FE
:100DC00009F4F6C0883009F44DC0F6C0883109F442
:100DD0004CC0803209F45DC0EFC0803409F468C0B3
:100DE00048F4803309F455C0883309F0E5C0809396
:100DF0003802D8C0803509F44FC0883509F45DC089
:100E0000883409F0D9C0D6C0883909F4C7C0A8F41D
:100E1000883709F467C038F4883609F463C080372E
:100E200009F460C0C9C0883809F4B8C0803909F431
:100E30005FC0803809F0C0C05BC0803B09F486C049
:100E400038F4803A09F466C0883A09F47FC0B4C027
:100E5000803C09F4A7C0883C09F4A4C0883B09F48D
:100E60008AC0AAC08091350210C09091370280914B
:100E70003602981770F5E091370281E08E0F80936B
:100E80003702F0E0EC5EFD4F80818093BB0085EC83
:100E900086C0809338028EC0E091370281E08E0FC9
:100EA000809337028091BB00F0E0EC5EFD4F8083C1
:100EB00090913702809136026EC0E091370281E056
:100EC0008E0F809337028091BB00F0E0EC5EFD4F07
:100ED00080838091390281116DC081E0809334025A
:100EE00084EA61C083E080933A0210920602CFCF79
:100EF00080910602803208F051C0E091060281E044
:100F00008E0F809306028091BB00F0E0EA51FE4F05
:100F10008083BDCF85EC8093BC0010923A02809113
:100F20000602803230F4E0910602F0E0EA51FE4F12
:100F300010826091060270E0E091E401F091E50119
:100F400086EE91E009951092060236C084E0809307
:100F50003A021092E3011092E201E091E001F09177
:100F6000E10109958091E201811105C081E0809342
:100F7000E2011092C001E091E30181E08E0F8093C5
:100F8000E301F0E0E054FE4F80818093BB0090913C
:100F9000E3018091E201981708F479CF85E8809306
:100FA000BC000AC085EC8093BC0010923A0204C0D9
:100FB000109238020E94EB02FF91EF91BF91AF9126
:100FC0009F918F917F916F915F914F913F912F9161
:100FD0000F900FBE0F901F901895009769F0FC01BD
:100FE00001900020E9F73197AF01481B590BBC0174
:100FF0008DE592E00C948C0080E090E00895CF9312
:10100000DF930E94ED07EC0187E691E00E94ED0777
:101010008C0F9D1FDF91CF9108958F929F92AF9279
:10102000BF920F931F93CF93DF93CDB7DEB7A197F6
:101030000FB6F894DEBF0FBECDBF19A2423008F440
:101040004AE08E010F5D1F4F842E912CA12CB12CF4
:10105000A50194010E94E80CE62FB901CA010150D4
:101060001109EA3014F4E05D01C0E95CD801EC93A9
:10107000232B242B252B61F7C8010E94ED07A19695
:101080000FB6F894DEBF0FBECDBFDF91CF911F9199
:101090000F91BF90AF909F908F900895CF92DF9265
:1010A000EF92FF92CF93DF936C01990FEE08FF0848
:1010B000F7FE1AC0E0915D02F0915E020190F081AE
:1010C000E02D6DE28DE592E00995EC01662777272A
:1010D000CB016C197D098E099F094AE00E940D0819
:1010E0007C01EC0EFD1E06C04AE0C701B6010E945D
:1010F0000D087C0187E691E00E94ED078E0D9F1D93
:10110000DF91CF91FF90EF90DF90CF900895809185
:101110003A028111FCCF842F413208F080E291E045
:1011200090933A02909339022FEF20933802109255
:101130003702280F209336029093350290913502A2
:10114000660F692B6093350290913402913061F4FF
:1011500010923402909135029093BB009091BC00A4
:1011600093FDF8CF95EC01C095EE9093BC00909163
:101170003A029130E1F390913702981710F4809180
:101180003702A4E1B2E02DE332E0F9019E2F921B79
:10119000981718F49D919193F9CF10923C02809387
:1011A0003B020895CF93DF93CDB7DEB760970FB6BC
:1011B000F894DEBF0FBECDBF789484B5826084BD45
:1011C00084B5816084BD85B5826085BD85B581604B
:1011D00085BD80916E00816080936E0010928100C9
:1011E0008091810082608093810080918100816084
:1011F0008093810080918000816080938000809145
:10120000B10084608093B1008091B00081608093D0
:10121000B00080917A00846080937A0080917A0097
:10122000826080937A0080917A00816080937A0056
:1012300080917A00806880937A001092C10061E00A
:1012400086E00E94140261E087E00E94140261E0DF
:101250008DE00E94140260E08CE00E94140262E0C3
:1012600084E00E94140262E085E00E941402E09192
:101270006D02F0916E0212E01083E0916902F0912C
:101280006A021082E0916B02F0916C028FEC808315
:1012900010927502E0917102F091720286E08083F3
:1012A000E0916F02F0917002808180618083E09113
:1012B0006F02F0917002808188608083E0916F02FC
:1012C000F0917002808180688083E0916F02F091DC
:1012D000700280818F7D80838091590390915A03A1
:1012E000DC01ED91FC910190F081E02D0995809158
:1012F000590390915A03DC01ED91FC910280F38136
:10130000E02D0995109319038091590390915A0388
:10131000DC01ED91FC910480F581E02D00E020E0FE
:1013200030E041E069E173E00995811131C08091BD
:10133000590390915A03DC01ED91FC910680F781ED
:10134000E02D28EE33E040E469E173E0099597FD74
:101350001FC0C0901903D12CE12CF12CFE2CED2CD8
:10136000DC2CCC2480911A03C82AFE2CED2CDC2C1A
:10137000CC2480911B03C82AFE2CED2CDC2CCC2421
:1013800080911C03C82AC114D104E104F10429F49A
:1013900080E491E00E94ED07FFCF88E591E00E9494
:1013A000ED076F2D77278827992740E10E940D08C8
:1013B00087E691E00E94ED078AE691E00E94ED0742
:1013C0006E2D70E080E090E04AE00E940D08E09110
:1013D0005D02F0915E020190F081E02D6EE28DE5FC
:1013E00092E009956D2D70E080E090E04AE00E9467
:1013F0000D0887E691E00E94ED0782E380931903D0
:1014000085E080931A038FEF80931B0391E0909304
:101410001C0380931D038091590390915A03DC01B2
:10142000ED91FC910480F581E02D00E020E030E0BA
:1014300045E069E173E00995811110C0809159037D
:1014400090915A03DC01ED91FC910680F781E02D2B
:1014500028EE33E040E469E173E0099594E190936C
:10146000190381E080931A0390931B0380931C035C
:101470008091590390915A03DC01ED91FC91048015
:10148000F581E02D00E020E030E044E069E173E028
:101490000995811110C08091590390915A03DC0184
:1014A000ED91FC910680F781E02D28EE33E040E4D9
:1014B00069E173E0099589E791E00E94FF074E0119
:1014C000B9E08B0E911C3E01EAE06E0E711C1A868B
:1014D0001B861C861D8685E00E94BB016C0184E092
:1014E0000E94BB015C018CE00E94BB017C018DE588
:1014F00092E00E94E800089778F18E010F5F1F4F7D
:1015000028014814590441F08DE592E00E94C6007C
:10151000D2018D932D01F5CF80E0482E81E0582E29
:1015200008151905A1F0F80180818E8781818F87C8
:10153000188A40E150E060E070E0CE010E960E9413
:10154000BA0BD2016D932D010E5F1F4FE9CF0FB67D
:10155000F894DEBF0FBECDBFC7010E944E08BAE4AB
:10156000B0931903E1E0E0931A0310921B038091FA
:10157000590390915A03DC01ED91FC910480F581AF
:10158000E02D00E020E030E043E069E173E0099500
:1015900081112DC08091590390915A03DC01ED9186
:1015A000FC910680F781E02D28EE33E040E469E10C
:1015B00073E0099597FD1BC0809119038130B9F440
:1015C00080911E03AFE1B3E0F3019E2F96199817A7
:1015D00018F49D919193F9CF9A8580910001981309
:1015E00006C09B8580910101981709F469C000E04D
:1015F00010E0C7010E944E080115110519F487E992
:1016000091E002C08BE991E00E94FF07602F8DE01E
:101610000E94E401B1E0EB16F10439F5AB2871F456
:1016200061E086E00E94E40161E070E080E090E02B
:101630000E94750260E087E00E94E401CD28B9F5C0
:1016400060E086E00E94E40161E070E080E090E00C
:101650000E94750260E087E00E94E40168E873E19F
:1016600080E090E00E94750222C0EF2801F5AB28CF
:1016700071F460E086E00E94E40161E070E080E0E7
:1016800090E00E94750260E087E00E94E401CD28AE
:1016900071F460E086E00E94E40161E070E080E0C7
:1016A00090E00E94750261E087E00E94E40162E33D
:1016B00070E080E090E00E9475020E94880107CFF0
:1016C0009C8580910201981392CF91E080E03D8546
:1016D00020910301321390E0092F182F8ACFEDE5F6
:1016E000F2E01382128248EE53E060E070E044833F
:1016F00055836683778384E191E09183808385ECD1
:1017000090E09587848784EC90E09787868780ECCB
:1017100090E0918B808B81EC90E0938B828B82ECBC
:1017200090E0958B848B86EC90E0978B868B118E66
:10173000128E138E148EABE5B3E013961C921E929C
:10174000129714964D935D936D937C93179786E251
:1017500091E011969C938E93E7E6F3E088E391E0A5
:1017600091838083B383A2831482F0935A03E0931E
:1017700059030895A6E0B0E0E0ECFBE00C94150DF1
:101780005C016B017A016115710519F0DB018D9324
:101790009C93E114F10429F0C7010297839708F0A4
:1017A000DCC03501BFEF6B1A7B0AF5011081812F78
:1017B00090E00E94CC0C892B11F05301F2CF1D3226
:1017C00049F43501F2E06F0E711CD50111961C91A0
:1017D00001E009C01B3231F43501B2E06B0E711C1F
:1017E000F501118100E0E114F10409F4C4C0F0E155
:1017F000EF16F10489F4103399F5D3018C918F7DA4
:10180000883509F0B2C011961C91B2E06B0E711CC4
:10181000026050E1E52EF12CEAE0EE16F10409F445
:10182000B0C0F0E1EF16F104D9F028E0E216F104BF
:1018300051F438E0E32EF12C88248A94982CA82CBB
:101840004FE1B42E13C06FEF7FEFCB0197010F2C48
:10185000000C440B550B0E94E80C49015A0106C0CC
:1018600088248A94982CA82C2FE0B22E7E826D8238
:1018700060E020E030E0A90127010F2C000C660891
:1018800077082D803E80E0EDE10FEA3060F08FEBCD
:10189000810F8A3110F4E9EC05C08FE9810F8A319C
:1018A00090F5E9EAE10F8E2F90E08E159F055CF52B
:1018B0006F3F09F182169306A406B506D8F0C3015E
:1018C000B2010E94D80C2E2F30E040E050E0298376
:1018D0003A834B835C83260F371F481F591F89812A
:1018E0009A81AB81BC81281739074A075B0710F042
:1018F00061E001C06FEFED81FE813196FE83ED83E3
:10190000D1011C91BECFC114D10489F0662339F0F6
:101910008D819E810197F6019183808308C001FF2C
:1019200006C08D819E810297D6018D939C9300FF06
:1019300007C050954095309521953F4F4F4F5F4FD1
:1019400067FF10C082E290E090936D0380936C0378
:101950006FEF7FEF8FEF9FEF1BC060E070E080E0E4
:1019600090E016C0B901CA0113C010E3E114F104FC
:1019700009F45FCF51CF103309F43FCF9AE0E92E3D
:10198000F12C89E9882E982CA82C89E1B82E6ECFED
:101990002696E2E10C94310D91110C94D50C803215
:1019A00019F089508550C8F7089599278827089518
:1019B000DB018F939F930E940A0DBF91AF91A29F6D
:1019C000800D911DA39F900DB29F900D112408953D
:1019D000A1E21A2EAA1BBB1BFD010DC0AA1FBB1F33
:1019E000EE1FFF1FA217B307E407F50720F0A21BA5
:1019F000B30BE40BF50B661F771F881F991F1A9412
:101A000069F760957095809590959B01AC01BD013B
:101A1000CF0108950E944C0DA59F900DB49F900D8D
:101A2000A49F800D911D112408952F923F924F92F3
:101A30005F926F927F928F929F92AF92BF92CF925E
:101A4000DF92EF92FF920F931F93CF93DF93CDB767
:101A5000DEB7CA1BDB0B0FB6F894DEBF0FBECDBFDF
:101A600009942A88398848885F846E847D848C84B0
:101A70009B84AA84B984C884DF80EE80FD800C81B9
:101A80001B81AA81B981CE0FD11D0FB6F894DEBF9C
:101A90000FBECDBFED010895A29FB001B39FC0015D
:101AA000A39F700D811D1124911DB29F700D811D8A
:101AB0001124911D0895EE0FFF1F0590F491E02D64
:101AC000099481E090E0F8940C94730DFB01DC0123
:101AD00004C08D910190801921F441505040C8F705
:0A1AE000881B990B0895F894FFCFBE
:101AEA0076DD591F0000FFFF00000000FF00FF0025
:101AFA00000000001F018C00B7006601E800C60064
:101B0A00DA00000000007903490306041D034103BB
:101B1A002D031E0300000000C502BF0232050B049C
:101B2A004469646E27742066696E6420504E3533AA
:101B3A007820626F61726400466F756E6420636814
:101B4A00697020504E35000D0A004669726D776142
:101B5A007265207665722E200057616974696E6716
:101B6A0020666F7220616E2049534F31343434330A
:101B7A004120636172640062616400676F6F640090
:00000001FF
