:1000000007C1000036C1000034C1000032C1000049
:1000100030C100002EC100002CC100002AC1000028
:1000200028C1000026C1000024C1000022C1000038
:1000300020C100001EC100001CC100001AC1000048
:1000400018C1000016C1000014C1000012C1000058
:1000500010C100000EC100000CC10000EEC600007F
:1000600008C10000B4C6000089C6000002C100003B
:1000700000C10000FEC00000FCC00000FAC000008B
:10008000F8C00000F6C00000F4C00000F2C000009C
:10009000F0C00000EEC00000ECC0000018C7000077
:1000A000E8C00000E6C00000E4C00000E2C00000BC
:1000B000E0C00000DEC00000DCC00000DAC00000CC
:1000C000D8C00000D6C00000D4C00000D2C00000DC
:1000D000D0C00000CEC00000CCC00000CAC00000EC
:1000E000C8C000009A029D028C0290029402D402C1
:1000F000A102A502AB02AF02B302B902BD02C10266
:10010000D402C702CB02CF0200000A0B02090C0D79
:100110000E080703040100000000000000000000BA
:1001200000000000000000000000000000000000CF
:10013000000000001211100000000000000000008C
:1001400000000000000000000000000000000000AF
:100150002200250028002B002E003100340002016F
:100160000000050108010B01000021002400270008
:100170002A002D00300033000101000004010701B6
:100180000A0105050505070508080808020202021C
:100190000A0A080804040404010101010101010123
:1001A0000303030303030303040707070C0C0C0CEE
:1001B0000C0C0C0C020202020606060606060606D7
:1001C0000B0B0B0B0B0B0B0B010210202008081064
:1001D00020401020408002010201080402010102B7
:1001E0000408102040808040201008040201800490
:1001F00002018040201008040201080402010102EB
:100200000408102040800102040810204080CD0B1B
:1002100011241FBECFEFD1E2DEBFCDBF00E00CBF87
:1002200024E0AAEDB2E001C01D92A13BB207E1F7C4
:1002300012E0A0E0B2E0ECEBF8E100E00BBF02C09E
:1002400007900D92AA3DB107D9F711E0C8E0D1E0BF
:1002500000E006C021970109802FFE010E943A0CA0
:10026000C730D10780E00807A9F70E9472090C94F3
:100270005C0CC6CECF92DF92EF92FF920F931F934A
:10028000CF93DF936C017A018B01C0E0D0E0CE15F3
:10029000DF0589F0D8016D918D01D601ED91FC91BA
:1002A0000190F081E02DC6011995892B11F47E0192
:1002B00002C02196ECCFC701DF91CF911F910F9122
:1002C000FF90EF90DF90CF900895FC01538D448D07
:1002D000252F30E0842F90E0821B930B541710F0F1
:1002E000CF96089501970895FC01918D828D9817FE
:1002F00061F0828DDF01A80FB11D5D968C91928D0A
:100300009F5F9F73928F90E008958FEF9FEF089506
:10031000FC01918D828D981731F0828DE80FF11DCF
:10032000858D90E008958FEF9FEF0895FC01918DEA
:10033000228D892F90E0805C9F4F821B91098F73E3
:100340009927089582EA93E0F1DF21E0892B09F4EF
:1003500020E0822F0895FC01848DDF01A80FB11DDC
:10036000A35ABF4F2C91848D90E001968F739927EB
:10037000848FA689B7892C93A089B1898C918064D8
:100380008C93938D848D981306C00288F389E02D99
:1003900080818F7D80830895EF92FF920F931F934A
:1003A000CF93DF93EC0181E0888F9B8D8C8D981328
:1003B00005C0E889F989808185FD23C0F62E0B8D63
:1003C00010E00F5F1F4F0F731127E02E8C8DE81286
:1003D0000BC00FB607FCFACFE889F989808185FF49
:1003E000F5CFCE01B8DFF2CF8B8DFE01E80FF11D06
:1003F000E35AFF4FF0820B8FEA89FB89808180628C
:1004000007C0EE89FF896083E889F989808180646B
:10041000808381E090E0DF91CF911F910F91FF9059
:10042000EF900895CF93DF93EC01888D8823C1F07E
:10043000EA89FB89808185FD05C0A889B9898C91ED
:1004400086FD0EC00FB607FCF5CF808185FFF2CF89
:10045000A889B9898C9185FFEDCFCE017CDFE8CFEB
:10046000DF91CF91089580E090E0892B19F06ADF49
:10047000811125C080E090E0892B41F080E090E080
:10048000892B21F00E94000081111CC080E090E0C7
:10049000892B41F080E090E0892B21F00E94000040
:1004A000811113C080E090E0892BA1F080E090E002
:1004B000892B81F00E94000081110AC008950E94DA
:1004C0000000D8CF0E940000E1CF0E940000EACFD8
:1004D0000C9400000895362F90E0FC01E85FFE4F79
:1004E0004491FC01E853FE4F2491FC01EE57FE4F6E
:1004F0009491992309F46BC0442309F455C050E04A
:10050000FA013197E231F10508F04EC08827EE5824
:10051000FF4F8F4F0C943A0C809180008F7707C06B
:10052000809180008F7D03C080918000877F8093C1
:1005300080003AC084B58F7702C084B58F7D84BDBA
:1005400033C08091B0008F7703C08091B0008F7D61
:100550008093B00029C0809190008F7707C0809170
:1005600090008F7D03C080919000877F80939000E2
:100570001BC08091A0008F7707C08091A0008F7D65
:1005800003C08091A000877F8093A0000DC0809160
:1005900020018F7707C0809120018F7D03C080915B
:1005A0002001877F80932001E92FF0E0EE0FFF1FED
:1005B000E25BFE4FA591B4918FB7F894EC913111A5
:1005C00003C020952E2301C02E2B2C938FBF08959E
:1005D0003FB7F89480914C0390914D03A0914E0346
:1005E000B0914F0326B5A89B05C02F3F19F0019687
:1005F000A11DB11D3FBFBA2FA92F982F8827820FA9
:10060000911DA11DB11DBC01CD0142E0660F771FF8
:10061000881F991F4A95D1F708958F929F92AF92A4
:10062000BF92CF92DF92EF92FF926B017C01D0DFFD
:100630004B015C01C114D104E104F104E9F0C8DF0D
:10064000DC01CB0188199909AA09BB09883E9340AE
:10065000A105B10578F321E0C21AD108E108F1083B
:1006600088EE880E83E0981EA11CB11CC114D10431
:10067000E104F10421F7DECFFF90EF90DF90CF90FF
:10068000BF90AF909F908F900895DC01ED91FC9109
:100690000284F385E02D19950895DC01ED91FC911C
:1006A0000190F081E02D1995089564EF71E080E0EC
:1006B00090E0B3CF10928103109280031092440314
:1006C0001092430310927F0381E080937E03109287
:1006D000790361E084E1FFDE61E085E1FCDEE9EBC6
:1006E000F0E080818E7F808380818D7F808388E4AD
:1006F0008093B80085E48093BC00089585ED8093D5
:10070000BC008091BC0084FDFCCF10927F03089553
:1007100040911E03262F30E0240F311D2132310578
:10072000DCF420917F032430C9F4FC0180E090E0E8
:10073000861758F430911E032191DC01A450BD4F5F
:10074000A30FB11D2C930196F3CF80911E03680F68
:1007500060931E0380E0089581E0089582E008958B
:100760000895E091810380918003E81730F4F0E070
:10077000EE57FC4F808190E008958FEF9FEF089532
:100780009091810380918003981750F4E92FF0E055
:10079000EE57FC4F208130E09F5F9093810302C0B1
:1007A0002FEF3FEFC90108958091800390E02091E1
:1007B0008103821B91090895CF92DF92EF92FF92FD
:1007C0000F931F93CF93DF937C01262F972F8A01DE
:1007D00080914603882391F0C62FD72F6E01C40E57
:1007E000D51ECC15DD0569F06991D701ED91FC911D
:1007F0000190F081E02DC7011995F3CF642F822F6E
:1008000087DFC801DF91CF911F910F91FF90EF908B
:10081000DF90CF900895CF93DF931F92CDB7DEB7CF
:100820006983209146032223D1F020914303203293
:1008300040F021E030E0FC013383228380E090E04F
:1008400014C080914403E82FF0E0E452FD4F9981F9
:1008500090838F5F809344038093430304C061E0DF
:10086000CE01019655DF81E090E00F90DF91CF91AE
:1008700008952091430390914503213208F04AC026
:1008800080917F038111FCCF32E030937F0331E010
:1008900030937E033FEF30937D0310927C032093CF
:1008A0007B03ACEDB2E049E553E0FA013E2F341B87
:1008B000321718F43D913193F9CF10927A032091B9
:1008C0007A03990F922B90937A0390917903913048
:1008D00061F41092790390917A039093BB00909108
:1008E000BC0093FDF8CF95EC01C095EE9093BC0051
:1008F00090917F039230E1F390917D039F3F79F0D7
:1009000080917D03803241F080917D03803331F00E
:1009100084E005C081E003C082E001C083E0109262
:10092000440310924303109246030895089580E013
:1009300090E00895CF93DF93EC01209791F061E070
:100940008DE0C9DD64E670E080E090E066DE60E0A6
:100950008DE0C1DD64E670E080E090E05EDE21972E
:10096000ECCF64EF71E080E090E0DF91CF9155CE65
:1009700089D74F925F927F928F929F92AF92BF9250
:10098000CF92DF92EF92FF920F931F93CF93DF935B
:1009900000D000D0CDB7DEB78C01962E772E842EF6
:1009A000690186E0E0E0F2E0DE01119601900D922F
:1009B0008A95E1F7E12CF12C46E064E2F8018281AE
:1009C000938145D481110CC061E070E080E090E03B
:1009D00024DEFFEFEF1AFF0AC114D10441F4ECCF7B
:1009E000F8018281938151DE80FFEECF06C0CE14E4
:1009F000DF0410F78FEF9FEF39C0F80182819381F8
:100A000044DE81116EC0F801828193813EDE811146
:100A100068C0F8018281938138DE8F3F09F061C0A0
:100A2000F8018281938131DEF82E81E080934603C4
:100A300084E2809345031092440310924303CE0155
:100A400001965C012E0197E0490E511CF501619160
:100A50005F01F8018281938120DEA414B504B1F70F
:100A6000F8018281938105DF8F2D90E0A12CB12CBC
:100A700099277C01F8E0EF0EF11C4E2D64E2F8019D
:100A800082819381E4D381110CC061E070E080E049
:100A900090E0C3DDFFEFAF1ABF0AC114D10441F4E7
:100AA000ECCFF80182819381F0DD80FFEECF06C0AC
:100AB000CA14DB0410F78FEF9FEF55C0F801828155
:100AC0009381E3DD811122C0F80182819381DDDD14
:100AD00081111CC0F80182819381D7DD8F3FB1F471
:100AE00003C08DEF9FEFC2CFF80182819381CDDDEE
:100AF000F82EF80182819381C8DD8F0D39F4F80159
:100B0000E48082819381C1DD853D19F08DEF9FEFF7
:100B10002AC0F80182819381B8DD91E09E0D98137F
:100B2000F5CFFA94FA948F14E0F0F6EDEF0EB92CAD
:100B3000C92CD72CF801828193812C2D2B192F15CC
:100B400030F4A3DDF60181936F01E80EF3CF9DDD54
:100B50008E0DE1F6F8018281938197DD8F2D90E073
:100B600002C08CEF9FEF26960FB6F894DEBF0FBE43
:100B7000CDBFDF91CF911F910F91FF90EF90DF904C
:100B8000CF90BF90AF909F908F907F905F904F904D
:100B900008956F927F928F929F92AF92BF92CF9261
:100BA000DF92EF92FF920F931F93CF93DF93CDB716
:100BB000DEB72C970FB6F894DEBF0FBECDBF7C0119
:100BC0005B01742E922E832EFB018081F7018483BA
:100BD00081E08093460384E28093450310924403AE
:100BE0001092430360E08281938157DD60E0F7015A
:100BF0008281938152DD6FEFF701828193814DDD18
:100C000011E0100F170D612FF7018281938145DDEF
:100C1000612F6195F701828193813FDD64EDF701DA
:100C2000828193813ADD6A2C650114ED8C2D861941
:100C3000871590F45601F6016081F7018281938156
:100C40002CDD811102C08DEF6AC0FFEFCF1ADF0AE1
:100C5000F5018081180FEACFB92CC92CD82CF701E7
:100C6000828193812C2D2B19201768F44601F601FF
:100C7000608113DD882339F3FFEFCF1ADF0AF40117
:100C80008081180FECCF612F619507DD60E0F701DF
:100C90008281938102DDF70182819381EADD86E022
:100CA000E6E0F2E0DE01179601900D928A95E1F7F9
:100CB0000BE010E047E064E2F70182819381C7D244
:100CC00081110AC061E070E080E090E0A6DC015094
:100CD000110981F78EEF23C0F70182819381D5DC62
:100CE00080FFF0CF8E010F5F1F4F680186E0B82EA6
:100CF000B00EF70182819381C8DCF60181936F0108
:100D0000BE12F7CF46E050E0BE01695F7F4FC801D9
:100D1000BDD521E0892B09F420E0822F81952C9606
:100D20000FB6F894DEBF0FBECDBFDF91CF911F91FC
:100D30000F91FF90EF90DF90CF90BF90AF909F907A
:100D40008F907F906F9008958CE092E002D28AE0BD
:100D500090E0F0DD10925803109257031092560362
:100D6000109255031092DB021092DA0285E0E0E562
:100D7000F3E0DF011D928A95E9F708951F920F9223
:100D80000FB60F9211240BB60F922F933F934F93F0
:100D90005F936F937F938F939F93AF93BF93EF93E3
:100DA000FF9382EA93E0D7DAFF91EF91BF91AF9181
:100DB0009F918F917F916F915F914F913F912F9173
:100DC0000F900BBE0F900FBE0F901F9018951F92A3
:100DD0000F920FB60F9211240BB60F922F938F9391
:100DE0009F93EF93FF93E091B203F091B30380815F
:100DF000E091B803F091B90382FD12C09081809117
:100E0000BB038F5F8F732091BC03821751F0E09179
:100E1000BB03F0E0EE55FC4F958F8093BB0301C000
:100E20008081FF91EF919F918F912F910F900BBE39
:100E30000F900FBE0F901F9018951F920F920FB634
:100E40000F9211242F933F938F939F93AF93BF9350
:100E50008091480390914903A0914A03B0914B03BC
:100E60003091470323E0230F2D3720F40196A11D75
:100E7000B11D05C026E8230F0296A11DB11D2093C8
:100E800047038093480390934903A0934A03B09388
:100E90004B0380914C0390914D03A0914E03B09170
:100EA0004F030196A11DB11D80934C0390934D03F8
:100EB000A0934E03B0934F03BF91AF919F918F9139
:100EC0003F912F910F900FBE0F901F9018951F927A
:100ED0000F920FB60F9211240BB60F922F933F93E0
:100EE0004F935F936F937F938F939F93AF93BF9332
:100EF000EF93FF938091B900887F803609F49CC0FE
:100F000068F5883209F45BC090F4803109F454C06C
:100F100038F4882309F4F6C0883009F44DC0F5C0D0
:100F2000883109F44CC0803209F45DC0EEC08034D1
:100F300009F468C048F4803309F455C0883309F0D7
:100F4000E4C080937D03D8C0803509F44FC0883554
:100F500009F45DC0883409F0D8C0D6C0883909F4D6
:100F6000C7C0A8F4883709F467C038F4883609F494
:100F700063C0803709F460C0C8C0883809F4B8C0BD
:100F8000803909F45FC0803809F0BFC05BC0803B86
:100F900009F486C038F4803A09F466C0883A09F446
:100FA0007FC0B3C0803C09F4A7C0883C09F4A4C04A
:100FB000883B09F48AC0A9C080917A0310C090913F
:100FC0007C0380917B03981770F5E0917C0381E0AE
:100FD0008E0F80937C03F0E0E75AFC4F8081809372
:100FE000BB0085EC86C080937D038EC0E0917C03BE
:100FF00081E08E0F80937C038091BB00F0E0E75A84
:10100000FC4F808390917C0380917B036EC0E091C4
:101010007C0381E08E0F80937C038091BB00F0E025
:10102000E75AFC4F808380917E0381116DC081E07F
:101030008093790384EA61C083E080937F031092F8
:101040004203CFCF80914203803208F051C0E0913B
:10105000420381E08E0F809342038091BB00F0E059
:10106000EE5DFC4F8083BDCF85EC8093BC00109279
:101070007F0380914203803230F4E0914203F0E03C
:10108000EE5DFC4F10826091420370E0E09120031E
:10109000F091210382E293E019951092420335C04A
:1010A00084E080937F0310921F0310921E03E0914F
:1010B0001C03F0911D03199580911E03811105C039
:1010C00081E080931E031092FC02E0911F0381E0F7
:1010D0008E0F80931F03F0E0E450FD4F80818093DA
:1010E000BB0090911F0380911E03981708F479CFDD
:1010F00085E88093BC0009C085EC8093BC00109209
:101100007F0303C010927D03F9DAFF91EF91BF9145
:10111000AF919F918F917F916F915F914F913F918F
:101120002F910F900BBE0F900FBE0F901F90189530
:10113000009761F0FC0101900020E9F73197AF01C1
:10114000481B590BBC0182EA93E094C880E090E010
:101150000895CF93DF93ECDFEC0187ED92E0E8DFB9
:101160008C0F9D1FDF91CF910895CF92DF92EF9268
:10117000FF920F931F93CF93DF93CDB7DEB7A19765
:101180000FB6F894DEBF0FBECDBF4115510559F41F
:10119000E091A203F091A3030190F081E02D82EA97
:1011A00093E0199520C019A2423008F44AE08E015C
:1011B0000F5D1F4FC42ED12CE12CF12CA7019601FD
:1011C00037D3E62FB901CA0101501109EA3014F4EE
:1011D000E05D01C0E95CD801EC93232B242B252B87
:1011E00069F7C801A5DF8C0187ED92E0A1DF800FD0
:1011F000911FA1960FB6F894DEBF0FBECDBFDF9151
:10120000CF911F910F91FF90EF90DF90CF900895B5
:1012100090E0FC01E853FE4F2491FC01EE57FE4F95
:101220008491882399F090E0880F991FFC01E85978
:10123000FE4FA591B491FC01E25BFE4F8591949124
:101240008FB7F894EC91E22BEC938FBF08958091C7
:101250007F038111FCCF842F413208F080E291E0BE
:1012600090937F0390937E032FEF20937D03109242
:101270007C03280F20937B0390937A0390917A0349
:10128000660F692B60937A0390917903913061F432
:101290001092790390917A039093BB009091BC00D7
:1012A00093FDF8CF95EC01C095EE9093BC00909122
:1012B0007F039130E1F390917C03981710F48091B3
:1012C0007C03A9E5B3E022E833E0F9019E2F921BED
:1012D000981718F49D919193F9CF10928103809300
:1012E00080030895CF93DF93CDB7DEB7A0970FB6F5
:1012F000F894DEBF0FBECDBF789484B5826084BD04
:1013000084B5816084BD85B5826085BD85B5816009
:1013100085BD80916E00816080936E001092810087
:101320008091810082608093810080918100816042
:101330008093810080918000816080938000809103
:10134000B10084608093B1008091B000816080938F
:10135000B000809191008260809391008091910013
:1013600081608093910080919000816080939000D3
:101370008091A10082608093A1008091A100816092
:101380008093A1008091A00081608093A000809153
:1013900021018260809321018091210181608093ED
:1013A00021018091200181608093200180917A0049
:1013B000846080937A0080917A00826080937A00C2
:1013C00080917A00816080937A0080917A008068B1
:1013D00080937A001092C100E091B203F091B303C0
:1013E00012E01083E091AE03F091AF031082E09120
:1013F000B003F091B1038FEC80831092BA03E091B7
:10140000B603F091B70386E08083E091B403F091D6
:10141000B503808180618083E091B403F091B503CE
:10142000808188608083E091B403F091B50380816E
:1014300080688083E091B403F091B50380818F7D53
:10144000808380E692E085DE8DE0E2DE8CE0E0DE07
:101450007BDC80919E0490919F04DC01ED91FC91D6
:101460000190F081E02D199580919E0490919F0448
:10147000DC01ED91FC910280F381E02D1995109330
:101480005E0480919E0490919F04DC01ED91FC919B
:101490000480F581E02D00E020E030E041E06EE5E1
:1014A00074E01995811131C080919E0490919F0440
:1014B000DC01ED91FC910680F781E02D28EE33E010
:1014C00040E46EE574E0199597FD1FC0C0905E047E
:1014D000D12CE12CF12CFE2CED2CDC2CCC24809199
:1014E0005F04C82AFE2CED2CDC2CCC2480916004F7
:1014F000C82AFE2CED2CDC2CCC2480916104C82A57
:10150000C114D104E104F10439F48EE692E021DE45
:1015100081E090E00FDAFCCF89E892E009DE6F2DE0
:1015200077278827992740E150E01FDE88E992E07D
:10153000FFDD6E2D70E080E090E04AE050E015DEC7
:1015400084EA92E0F5DD6D2D70E080E090E04AE005
:1015500050E00BDE82E380935E0485E080935F04BD
:101560008FEF8093600491E0909361048093620414
:1015700080919E0490919F04DC01ED91FC91048088
:10158000F581E02D00E020E030E045E06EE574E01C
:101590001995811110C080919E0490919F04DC01E7
:1015A000ED91FC910680F781E02D28EE33E040E4D8
:1015B0006EE574E0199594E190935E0481E0809368
:1015C0005F04909360048093610480919E049091E5
:1015D0009F04DC01ED91FC910480F581E02D00E099
:1015E00020E030E044E06EE574E01995811110C010
:1015F00080919E0490919F04DC01ED91FC91068006
:10160000F781E02D28EE33E040E46EE574E01995B3
:101610006E01B1E2CB0ED11C1AE480E5A82E83E066
:10162000B82EFE0131964F01EC15FD0511F0119217
:10163000FBCFE12CF12C82EA93E00E949601892BEA
:1016400029F0BFE1EB16F10409F092C0EF2849F14F
:1016500066EA72E0CE01019626D1892B11F474DB83
:1016600020C06CEA72E0CE0101961DD1892B41F4B5
:101670008AE192E06EDD8AE090E05CD961E00EC024
:1016800067EB72E0CE0101960ED1892B51F485E211
:1016900092E05FDD8AE090E04DD960E08CE00E944E
:1016A0006B02809157039091580390935603809357
:1016B000550383E090E03ED910935E0481E080936F
:1016C0005F041092600480919E0490919F04DC015D
:1016D000ED91FC910480F581E02D00E020E030E008
:1016E00043E06EE574E01995882311F080E026C090
:1016F00080919E0490919F04DC01ED91FC91068005
:10170000F781E02D28EE33E040E46EE574E01995B2
:1017100097FDECCF80915E04813041F780916304A6
:1017200080930500A4E6B4E0E0E5F3E09E2F9A196B
:10173000981718F49D919193F9CF81E090E09093E0
:101740005803809357032091550330915603821715
:10175000930759F0892B19F482EC92E005C08CECC8
:1017600092E0E6DC80E593E0F4DC0E94330259CF9E
:1017700082EA93E00E9474018A3041F4E1E0F0E0F3
:10178000EC0FFD1FEE0DFF1D108260CFFFEFEF1A73
:10179000FF0AD4018D934D014ECFE2EAF3E01382AC
:1017A000128248EE53E060E070E044835583668324
:1017B000778384E392E09183808385EC90E0958742
:1017C000848784EC90E09787868780EC90E0918B0B
:1017D000808B81EC90E0938B828B82EC90E0958BF8
:1017E000848B86EC90E0978B868B118E128E138EF5
:1017F000148EA0EAB4E013961C921E9212971496CF
:101800004D935D936D937C93179786E492E01196C8
:101810009C938E93ECEAF4E088E592E091838083D8
:10182000B383A2831482F0939F04E0939E040895EF
:10183000A1E21A2EAA1BBB1BFD010DC0AA1FBB1FD4
:10184000EE1FFF1FA217B307E407F50720F0A21B46
:10185000B30BE40BF50B661F771F881F991F1A94B3
:1018600069F760957095809590959B01AC01BD01DD
:10187000CF010895EE0FFF1F881F8BBF0790F691D1
:10188000E02D199481E090E0F89416C0FB01DC0192
:1018900004C08D910190801921F441505040C8F747
:1018A000881B990B0895FB01DC018D910190801933
:0C18B0000110D9F3990B0895F894FFCFB4
:1018BC000000FFFF00000000FF00FF006172647574
:1018CC00696E6F5F72657365740072616973655FD1
:1018DC0063756265006C6F7765725F637562650036
:1018EC0000000000CC013A0165011202960174015E
:1018FC008801000000000B04DC039704B003D40340
:10190C00C003B103000000005A035503C905B90414
:10191C0048656C6C6F2053657269616C2100436F74
:10192C00756C64206E6F742066696E6420504E3541
:10193C00333220626F61726400466F756E6420638F
:10194C0068697020504E35004669726D776172651A
:10195C00207665722E00726573657400726169730E
:10196C00652D63756265006C6F7765722D637562AA
:10197C0065005441472D4C45415645005441472D77
:0A198C00454E5445522D000D0A008F
:00000001FF
