:1000000007C1000033C1000031C100002FC1000052
:100010002DC100002BC1000029C1000027C1000034
:1000200025C1000023C1000021C100001FC1000044
:100030001DC100001BC1000019C1000017C1000054
:1000400015C1000013C1000011C100000FC1000064
:100050000DC100000BC1000009C10000CEC30000AB
:1000600005C1000094C3000069C30000FFC0000088
:10007000FDC00000FBC00000F9C00000F7C0000098
:10008000F5C00000F3C00000F1C00000EFC00000A8
:10009000EDC00000EBC00000E9C00000E7C00000B8
:1000A000E5C00000E3C00000E1C00000DFC00000C8
:1000B000DDC00000DBC00000D9C00000D7C00000D8
:1000C000D5C00000D3C00000D1C00000CFC00000E8
:1000D000CDC00000CBC00000C9C00000C7C00000F8
:1000E000C5C0000062016501540158015C019C011A
:1000F00069016D01730177017B018101850189012E
:100100009C018F019301970100002100240027002A
:100110002A002D0030003300010100000401070116
:100120000A0100002200250028002B002E003100CB
:10013000340002010000050108010B010505050559
:10014000070508080808020202020A0A080804044F
:10015000040401010101010101010303030303037D
:100160000303040707070C0C0C0C0C0C0C0C02020C
:10017000020206060606060606060B0B0B0B0B0B09
:100180000B0B010210202008081020401020408096
:10019000020102010804020101020408102040804B
:1001A00080402010080402018004020180402010D9
:1001B0000804020108040201010204081020408022
:1001C000010204081020408000000A0B02090C0DF7
:1001D0000E080703040100000000000000000000FA
:1001E000000000000000000000000000000000000F
:1001F00000000000121110000000000000000000CC
:100200000000000000000000000000000000840565
:1002100011241FBECFEFD1E2DEBFCDBF00E00CBF87
:1002200012E0A0E0B2E0E0E9FBE000E00BBF02C0BA
:1002300007900D92AA38B107D9F723E0AAE8B2E0F7
:1002400001C01D92AB33B207E1F711E0C8E0D1E085
:1002500000E005C021970109802FFE0182D4C7303C
:10026000D10780E00807B1F712D390C4C9CECF936D
:10027000C82FE5EDF1E04491EFE8F1E02491E9E4E5
:10028000F1E09491992309F46AC0442309F454C01D
:1002900050E0FA013197E231F10508F04DC08827AE
:1002A000EE58FF4F8F4F5DC4809180008F7707C05D
:1002B000809180008F7D03C080918000877F809334
:1002C00080003AC084B58F7702C084B58F7D84BD2D
:1002D00033C08091B0008F7703C08091B0008F7DD4
:1002E0008093B00029C0809190008F7707C08091E3
:1002F00090008F7D03C080919000877F8093900055
:100300001BC08091A0008F7707C08091A0008F7DD7
:1003100003C08091A000877F8093A0000DC0309122
:1003200020013F7707C0309120013F7D03C030910D
:100330002001377F30932001E92FF0E0EE0FFF1FFF
:10034000EE5DFE4FA591B4918FB7F894EC91C11179
:1003500003C020952E2301C02E2B2C938FBFCF914D
:100360000895CF92DF92EF92FF920F931F93CF9356
:10037000DF936C017A018B01C0E0D0E0CE15DF0580
:1003800089F0D8016D918D01D601ED91FC9101901C
:10039000F081E02DC6011995892B11F47E0102C070
:1003A0002196ECCFC701DF91CF911F910F91FF9064
:1003B000EF90DF90CF900895089580E090E0089549
:1003C000FC01538D448D252F30E0842F90E0821B5B
:1003D000930B541710F0CF96089501970895FC01E0
:1003E000918D828D981761F0828DDF01A80FB11D6C
:1003F0005D968C91928D9F5F9F73928F90E0089590
:100400008FEF9FEF0895FC01918D828D981731F049
:10041000828DE80FF11D858D90E008958FEF9FEF9D
:100420000895FC01918D228D892F90E0805C9F4F73
:10043000821B91098F73992708958EE992E0F1DF6D
:1004400021E0892B09F420E0822F0895FC01848D9E
:10045000DF01A80FB11DA35ABF4F2C91848D90E0EE
:1004600001968F739927848FA689B7892C93A089C9
:10047000B1898C9180648C93938D848D981306C080
:100480000288F389E02D80818F7D80830895EF922B
:10049000FF920F931F93CF93DF93EC0181E0888F3E
:1004A0009B8D8C8D981305C0E889F989808185FD25
:1004B00023C0F62E0B8D10E00F5F1F4F0F73112717
:1004C000E02E8C8DE8120BC00FB607FCFACFE8893E
:1004D000F989808185FFF5CFCE01B8DFF2CF8B8D12
:1004E000FE01E80FF11DE35AFF4FF0820B8FEA89FE
:1004F000FB898081806207C0EE89FF896083E8897B
:10050000F98980818064808381E090E0DF91CF91E0
:100510001F910F91FF90EF900895CF93DF93EC011F
:10052000888D8823C1F0EA89FB89808185FD05C01B
:10053000A889B9898C9186FD0EC00FB607FCF5CF4E
:10054000808185FFF2CFA889B9898C9185FFEDCF95
:10055000CE017CDFE8CFDF91CF91089580E090E07D
:10056000892B19F06ADF811125C080E090E0892B8A
:1005700041F080E090E0892B21F00E940000811181
:100580001CC080E090E0892B41F080E090E0892B56
:1005900021F00E940000811113C080E090E0892BBF
:1005A000A1F080E090E0892B81F00E940000811191
:1005B0000AC008950E940000D8CF0E940000E1CF39
:1005C0000E940000EACF0C94000008953FB7F89411
:1005D0008091910290919202A0919302B091940225
:1005E00026B5A89B05C02F3F19F00196A11DB11D8E
:1005F0003FBFBA2FA92F982F8827820F911DA11DC9
:10060000B11DBC01CD0142E0660F771F881F991F05
:100610004A95D1F708958F929F92AF92BF92CF9251
:10062000DF92EF92FF926B017C01D0DF4B015C0106
:10063000C114D104E104F104E9F0C8DFDC01CB010D
:1006400088199909AA09BB09883E9340A105B105FB
:1006500078F321E0C21AD108E108F10888EE880E8B
:1006600083E0981EA11CB11CC114D104E104F10463
:1006700021F7DECFFF90EF90DF90CF90BF90AF904B
:100680009F908F900895009761F0FC0101900020E9
:10069000E9F73197AF01481B590BBC018EE992E095
:1006A00060CE80E090E00895CF93DF93ECDFEC0123
:1006B00082E592E0E8DF8C0F9D1FDF91CF910895D6
:1006C0000F931F93CF93DF938C0180E092E0ECDFD8
:1006D000E801209781F081E0CADD64E670E080E007
:1006E00090E099DF80E0C3DD64E670E080E090E0B8
:1006F00092DF2197EECF64EF71E080E090E0DF9130
:10070000CF911F910F9187CF34D286E092E0CCDF5A
:1007100010929D0210929C0210929B0210929A02DB
:1007200010928B0210928A0285E0E5E9F2E0DF0187
:100730001D928A95E9F78AE090E0C2CF1F920F924E
:100740000FB60F9211240BB60F922F933F934F9336
:100750005F936F937F938F939F93AF93BF93EF9329
:10076000FF938EE992E072DEFF91EF91BF91AF911E
:100770009F918F917F916F915F914F913F912F91B9
:100780000F900BBE0F900FBE0F901F9018951F92E9
:100790000F920FB60F9211240BB60F922F938F93D7
:1007A0009F93EF93FF93E091AE02F091AF028081AF
:1007B000E091B402F091B50282FD12C09081809167
:1007C000B7028F5F8F732091B802821751F0E091CA
:1007D000B702F0E0E256FD4F958F8093B70201C05B
:1007E0008081FF91EF919F918F912F910F900BBE80
:1007F0000F900FBE0F901F9018951F920F920FB67B
:100800000F9211242F933F938F939F93AF93BF9396
:1008100080918D0290918E02A0918F02B0919002F2
:1008200030918C0223E0230F2D3720F40196A11D77
:10083000B11D05C026E8230F0296A11DB11D20930E
:100840008C0280938D0290938E02A0938F02B093BE
:1008500090028091910290919202A0919302B091A6
:1008600094020196A11DB11D809391029093920272
:10087000A0939302B0939402BF91AF919F918F91F7
:100880003F912F910F900FBE0F901F901895CF930F
:10089000DF93CDB7DEB7A0970FB6F894DEBF0FBEDB
:1008A000CDBF789484B5826084BD84B5816084BDF9
:1008B00085B5826085BD85B5816085BD80916E00FE
:1008C000816080936E00109281008091810082602F
:1008D000809381008091810081608093810080916C
:1008E00080008160809380008091B100846080935B
:1008F000B1008091B00081608093B0008091910040
:10090000826080939100809191008160809391003A
:10091000809190008160809390008091A10082601E
:100920008093A1008091A10081608093A1008091BB
:10093000A00081608093A00080912101826080935B
:10094000210180912101816080932101809120010A
:1009500081608093200180917A00846080937A0086
:1009600080917A00826080937A0080917A00816021
:1009700080937A0080917A00806880937A00109248
:10098000C100E091AE02F091AF0282E08083E0917D
:10099000AA02F091AB021082E091AC02F091AD029C
:1009A0008FEC80831092B602E091B202F091B30214
:1009B00086E08083E091B002F091B1028081806195
:1009C0008083E091B002F091B102808188608083E1
:1009D000E091B002F091B102808180688083E09163
:1009E000B002F091B10280818F7D808385E592E035
:1009F0005BDEEFE8F1E02491E9E4F1E08491882303
:100A000099F090E0880F991FFC01E85FFE4FA591D7
:100A1000B491FC01EE5DFE4F859194918FB7F894EF
:100A2000EC91E22BEC938FBF70DE6E0181E2C80E79
:100A3000D11C86E292E038DEFE0131967F01EC1592
:100A4000FD0511F01192FBCF00E010E08EE992E07D
:100A5000E8DC892B21F00F31110509F042C0012B90
:100A600019F163E672E0CE01019687D0892B11F46B
:100A70004CDE1AC069E672E0CE0101967ED0892B69
:100A800031F48FE292E010DE82E090E00CC064E787
:100A900072E0CE01019671D0892B31F48AE392E0A5
:100AA00003DE83E090E00CDE80919C0290919D0239
:100AB00090939B0280939A0285E492E0F5DD84E0B6
:100AC00090E0FEDD10929D0210929C0280919A02AD
:100AD00090919B02892B19F08FE792E0E5DD3EDDD6
:100AE000A8CF8EE992E07BDC8A3041F4E1E0F0E0CF
:100AF000EC0FFD1FE00FF11F1082B1CF0F5F1F4FF2
:100B0000F70181937F01A2CFEEE9F2E01382128216
:100B100088EE93E0A0E0B0E084839583A683B7835A
:100B200088E192E09183808385EC90E095878487CB
:100B300084EC90E09787868780EC90E0918B808BA7
:100B400081EC90E0938B828B82EC90E0958B848B90
:100B500086EC90E0978B868B118E128E138E148EFE
:100B60000895EE0FFF1F881F8BBF0790F691E02DB1
:100B7000199481E090E0F89409C0FB01DC018D91AB
:100B8000019080190110D9F3990B0895F894FFCFC3
:100B9000626C696E6B0061726475696E6F5F72651D
:100BA00073657400000000004702B101E0018D028E
:100BB0001102EF010302726561646C696E65007277
:100BC000616973655F63756265006C6F7765725FFD
:100BD0006375626500726561645F6E66635F746110
:100BE00067000D0A0048656C6C6F2053657269617F
:100BF0006C210072657365740072616973652D63A1
:100C0000756265006C6F7765722D6375626500545F
:0A0C100041472D4C454156450000B8
:00000001FF
