:100000000C9462000C948A000C948A000C948A0070
:100010000C948A000C948A000C948A000C948A0038
:100020000C948A000C948A000C948A000C948A0028
:100030000C948A000C948A000C948A000C948A0018
:100040000C9475060C948A000C9443060C941D06BF
:100050000C948A000C948A000C948A000C948A00F8
:100060000C94BF060C948A000000000024002700B6
:100070002A0000000000250028002B0000000000DE
:1000800023002600290004040404040404040202DA
:100090000202020203030303030301020408102007
:1000A0004080010204081020010204081020000012
:1000B0000008000201000003040700000000000027
:1000C0000000340B11241FBECFEFD8E0DEBFCDBF40
:1000D00023E0ACE9B1E001C01D92A836B207E1F718
:1000E00011E0A0E0B1E0E6E7F7E102C005900D9273
:1000F000AC39B107D9F710E0C2E6D0E004C02197CF
:10010000FE010E94A10BC136D107C9F70E94D20897
:100110000C94B90B0C940000CF92DF92EF92FF92F7
:100120000F931F93CF93DF936C017A018B01C0E093
:10013000D0E0CE15DF0589F0D8016D918D01D60193
:10014000ED91FC910190F081E02DC6010995892B7C
:1001500011F47E0102C02196ECCFC701DF91CF914F
:100160001F910F91FF90EF90DF90CF900895FC01C9
:10017000538D448D252F30E0842F90E0821B930B0C
:10018000541710F0CF96089501970895FC01918DB2
:10019000828D981761F0828DDF01A80FB11D5D96E9
:1001A0008C91928D9F5F9F73928F90E008958FEF57
:1001B0009FEF0895FC01918D828D981731F0828D0B
:1001C000E80FF11D858D90E008958FEF9FEF089562
:1001D000FC01918D228D892F90E0805C9F4F821BC6
:1001E00091098F739927089589E592E00E94E800AC
:1001F00021E0892B09F420E0822F0895FC01848DF1
:10020000DF01A80FB11DA35ABF4F2C91848D90E040
:1002100001968F739927848FA689B7892C93A0891B
:10022000B1898C9180648C93938D848D981306C0D2
:100230000288F389E02D80818F7D80830895EF927D
:10024000FF920F931F93CF93DF93EC0181E0888F90
:100250009B8D8C8D981305C0E889F989808185FD77
:1002600024C0F62E0B8D10E00F5F1F4F0F73112768
:10027000E02E8C8DE8120CC00FB607FCFACFE8898F
:10028000F989808185FFF5CFCE010E94FE00F1CF74
:100290008B8DFE01E80FF11DE35AFF4FF0820B8FAB
:1002A000EA89FB898081806207C0EE89FF896083CB
:1002B000E889F98980818064808381E090E0DF9122
:1002C000CF911F910F91FF90EF900895CF93DF93FF
:1002D000EC01888D8823C9F0EA89FB89808185FD3E
:1002E00005C0A889B9898C9186FD0FC00FB607FC9F
:1002F000F5CF808185FFF2CFA889B9898C9185FFE0
:10030000EDCFCE010E94FE00E7CFDF91CF9108959F
:1003100080E090E0892B29F00E94F40081110C9478
:1003200000000895833081F028F4813099F0823004
:10033000A1F008958730A9F08830B9F08430D1F465
:10034000809180008F7D03C0809180008F778093A3
:100350008000089584B58F7702C084B58F7D84BDF9
:1003600008958091B0008F7703C08091B0008F7D99
:100370008093B0000895CF93DF93282F30E0F901E8
:10038000E255FF4F8491F901E656FF4FD491F901F0
:10039000EA57FF4FC491CC2391F081110E94920142
:1003A000EC2FF0E0EE0FFF1FE458FF4FA591B49142
:1003B000EC91ED2381E090E021F480E002C080E048
:1003C00090E0DF91CF9108951F93CF93DF93282F73
:1003D00030E0F901E255FF4F8491F901E656FF4FF5
:1003E000D491F901EA57FF4FC491CC23C9F0162FDD
:1003F00081110E949201EC2FF0E0EE0FFF1FEE58EA
:10040000FF4FA591B4918FB7F894111105C09C913D
:10041000ED2FE095E92302C0EC91ED2BEC938FBF1B
:10042000DF91CF911F910895CF93DF9390E0FC016E
:10043000E656FF4F2491FC01EA57FF4F8491882331
:1004400061F190E0880F991FFC01E859FF4FC591B9
:10045000D491FC01EE58FF4FA591B491611109C0F0
:100460009FB7F8948881209582238883EC912E236E
:100470000BC0623061F49FB7F8943881822F809569
:1004800083238883EC912E2B2C939FBF06C08FB7BC
:10049000F894E8812E2B28838FBFDF91CF910895A8
:1004A0003FB7F89480910C0290910D02A0910E023A
:1004B000B0910F0226B5A89B05C02F3F19F00196F9
:1004C000A11DB11D3FBFBA2FA92F982F8827820FDA
:1004D000911DA11DB11DBC01CD0142E0660F771F2A
:1004E000881F991F4A95D1F708958F929F92AF92D6
:1004F000BF92CF92DF92EF92FF926B017C010E943C
:1005000050024B015C01C114D104E104F104F1F08B
:100510000E945002DC01CB0188199909AA09BB0984
:10052000883E9340A105B10570F321E0C21AD108BD
:10053000E108F10888EE880E83E0981EA11CB11C2A
:10054000C114D104E104F10419F7DDCFFF90EF905D
:10055000DF90CF90BF90AF909F908F900895DC0177
:10056000ED91FC910284F385E02D09950895DC015D
:10057000ED91FC910190F081E02D0995089564EFD3
:1005800071E080E090E00C947502109238021092B5
:10059000370210920402109203021092360281E098
:1005A000809335021092300261E082E10E94E40102
:1005B00061E083E10E94E401E9EBF0E080818E7F5D
:1005C000808380818D7F808388E48093B80085E478
:1005D0008093BC00089585ED8093BC008091BC00A1
:1005E00084FDFCCF1092360208954091DE01262F43
:1005F00030E0240F311D21323105DCF42091360228
:100600002430C9F4FC0180E090E0861758F4309162
:10061000DE012191DC01A454BE4FA30FB11D2C9328
:100620000196F3CF8091DE01680F6093DE0180E0D8
:10063000089581E0089582E008950895E0913802D8
:1006400080913702E81730F4F0E0E75CFD4F8081DD
:1006500090E008958FEF9FEF089590913802809178
:100660003702981750F4E92FF0E0E75CFD4F208146
:1006700030E09F5F9093380202C02FEF3FEFC90137
:1006800008958091370290E020913802821B9109F1
:100690000895CF92DF92EF92FF920F931F93CF9323
:1006A000DF937C01262F972F8A01809106028823F1
:1006B00091F0C62FD72F6E01C40ED51ECC15DD05C7
:1006C00071F06991D701ED91FC910190F081E02DDD
:1006D000C7010995F3CF642F822F0E94F502C8014C
:1006E000DF91CF911F910F91FF90EF90DF90CF900E
:1006F0000895CF93DF931F92CDB7DEB76983209122
:1007000006022223D1F020910302203240F021E0A2
:1007100030E0FC013383228380E090E015C08091BB
:100720000402E82FF0E0E456FE4F998190838F5F3A
:10073000809304028093030205C061E0CE0101961C
:100740000E94F50281E090E00F90DF91CF91089533
:100750002091030290910502213208F04AC0809155
:1007600036028111FCCF32E03093360231E0309313
:1007700035023FEF3093340210923302209332025D
:10078000ACE9B1E040E152E0FA013E2F341B3217F0
:1007900018F43D913193F9CF10923102209131023A
:1007A000990F922B9093310290913002913061F425
:1007B00010923002909131029093BB009091BC0056
:1007C00093FDF8CF95EC01C095EE9093BC0090910D
:1007D00036029230E1F3909134029F3F79F080919C
:1007E0003402803241F080913402803331F084E071
:1007F00005C081E003C082E001C083E010920402E2
:1008000010920302109206020895089580E090E08D
:1008100008950E94A70B4F925F927F928F929F92B2
:10082000AF92BF92CF92DF92EF92FF920F931F93FE
:10083000CF93DF9300D000D000D0CDB7DEB78C01CE
:10084000962E772E842E690186E0E0E0F1E0DE014D
:10085000119601900D928A95E1F7E12CF12C46E07A
:1008600064E2F801828193810E94870881110DC0A2
:1008700061E070E080E090E00E947502FFEFEF1A07
:10088000FF0AC114D10449F4EACFF80182819381AF
:100890000E94AF0280FFECCF06C0CE14DF04F8F652
:1008A0008FEF9FEF3FC0F801828193810E94AF02DA
:1008B000811179C0F801828193810E94AF02811178
:1008C00072C0F801828193810E94AF028F3F09F0CC
:1008D0006AC0F801828193810E94AF02F82E81E004
:1008E0008093060284E28093050210920402109223
:1008F0000302CE0101965C012E0197E0490E511CC6
:10090000F50161915F01F801828193810E94B70234
:10091000A414B504A9F7F801828193810E94A80369
:100920008F2D90E0A12CB12C99277C01F8E0EF0EDF
:10093000F11C4E2D64E2F801828193810E948708A8
:1009400081110DC061E070E080E090E00E947502CE
:10095000FFEFAF1ABF0AC114D10449F4EACFF8017E
:10096000828193810E94AF0280FFECCF06C0CA143F
:10097000DB04F8F68FEF9FEF5FC0F801828193816F
:100980000E94AF02811127C0F801828193810E94E9
:10099000AF02811120C0F801828193810E94AF02D1
:1009A0008F3FC9F403C08DEF9FEFBCCFF801828168
:1009B00093810E94AF02F82EF801828193810E94F8
:1009C000AF028F0D41F4F801E480828193810E948F
:1009D000AF02853D19F08DEF9FEF2EC0F8018281A7
:1009E00093810E94AF0291E09E0D9813F4CFFA9488
:1009F000FA948F14F8F0F6EDEF0EB92CC92CD72C21
:100A0000F801828193812C2D2B192F1538F40E9427
:100A1000AF02F60181936F01E80EF2CF0E94AF02A0
:100A20008E0DC9F6F801828193810E94AF028F2D4D
:100A300090E002C08CEF9FEF26960FB6F894DEBFD1
:100A40000FBECDBFDF91CF911F910F91FF90EF901F
:100A5000DF90CF90BF90AF909F908F907F905F90EE
:100A60004F9008956F927F928F929F92AF92BF9214
:100A7000CF92DF92EF92FF920F931F93CF93DF936A
:100A8000CDB7DEB72C970FB6F894DEBF0FBECDBF43
:100A90007C015B01742E922E832EFB018081F70175
:100AA000848381E08093060284E2809305021092A1
:100AB00004021092030260E0828193810E94B702D7
:100AC00060E0F701828193810E94B7026FEFF70126
:100AD000828193810E94B70211E0100F170D612FE0
:100AE000F701828193810E94B702612F6195F7011E
:100AF000828193810E94B70264EDF7018281938124
:100B00000E94B7026A2C650114ED8C2D8619871599
:100B100098F45601F6016081F701828193810E9469
:100B2000B702811102C08DEF73C0FFEFCF1ADF0A49
:100B3000F5018081180FE9CFB92CC92CD82CF70109
:100B4000828193812C2D2B19201770F44601F60118
:100B500060810E94B702882331F3FFEFCF1ADF0ACA
:100B6000F4018081180FEBCF612F61950E94B702CD
:100B700060E0F701828193810E94B702F7018281D0
:100B800093810E94A80386E0E6E0F1E0DE0117967B
:100B900001900D928A95E1F70BE010E047E064E2E6
:100BA000F701828193810E94870881110BC061E067
:100BB00070E080E090E00E9475020150110971F729
:100BC0008EEF26C0F701828193810E94AF0280FFE1
:100BD000EECF8E010F5F1F4F680186E0B82EB00E7A
:100BE000F701828193810E94AF02F60181936F0128
:100BF000BE12F6CF46E050E0BE01695F7F4FC801EC
:100C00000E94AC0B21E0892B09F420E0822F819512
:100C10002C960FB6F894DEBF0FBECDBFDF91CF91FB
:100C20001F910F91FF90EF90DF90CF90BF90AF900A
:100C30009F908F907F906F9008951F920F920FB6A4
:100C40000F9211242F933F934F935F936F937F9352
:100C50008F939F93AF93BF93EF93FF9389E592E0B8
:100C60000E94FE00FF91EF91BF91AF919F918F91F4
:100C70007F916F915F914F913F912F910F900FBE98
:100C80000F901F9018951F920F920FB60F9211247C
:100C90002F938F939F93EF93FF93E0916902F091CD
:100CA0006A028081E0916F02F091700282FD12C0B1
:100CB0009081809172028F5F8F73209173028217EF
:100CC00051F0E0917202F0E0E75AFD4F958F80936A
:100CD000720201C08081FF91EF919F918F912F91BE
:100CE0000F900FBE0F901F9018951F920F920FB686
:100CF0000F9211242F933F938F939F93AF93BF93A2
:100D00008091080290910902A0910A02B0910B0211
:100D10003091070223E0230F2D3720F40196A11D07
:100D2000B11D05C026E8230F0296A11DB11D209319
:100D300007028093080290930902A0930A02B093DD
:100D40000B0280910C0290910D02A0910E02B091C5
:100D50000F020196A11DB11D80930C0290930D020C
:100D6000A0930E02B0930F02BF91AF919F918F910C
:100D70003F912F910F900FBE0F901F9018951F92CB
:100D80000F920FB60F9211242F933F934F935F93BF
:100D90006F937F938F939F93AF93BF93EF93FF9343
:100DA0008091B900887F803609F49CC068F588324C
:100DB00009F45BC090F4803109F454C038F48823FE
:100DC00009F4F6C0883009F44DC0F6C0883109F442
:100DD0004CC0803209F45DC0EFC0803409F468C0B3
:100DE00048F4803309F455C0883309F0E5C0809396
:100DF0003402D8C0803509F44FC0883509F45DC08D
:100E0000883409F0D9C0D6C0883909F4C7C0A8F41D
:100E1000883709F467C038F4883609F463C080372E
:100E200009F460C0C9C0883809F4B8C0803909F431
:100E30005FC0803809F0C0C05BC0803B09F486C049
:100E400038F4803A09F466C0883A09F47FC0B4C027
:100E5000803C09F4A7C0883C09F4A4C0883B09F48D
:100E60008AC0AAC08091310210C090913302809153
:100E70003202981770F5E091330281E08E0F809373
:100E80003302F0E0E05FFD4F80818093BB0085EC92
:100E900086C0809334028EC0E091330281E08E0FD1
:100EA000809333028091BB00F0E0E05FFD4F8083D0
:100EB00090913302809132026EC0E091330281E062
:100EC0008E0F809333028091BB00F0E0E05FFD4F16
:100ED00080838091350281116DC081E08093300262
:100EE00084EA61C083E08093360210920202CFCF81
:100EF00080910202803208F051C0E091020281E04C
:100F00008E0F809302028091BB00F0E0EE51FE4F05
:100F10008083BDCF85EC8093BC0010923602809117
:100F20000202803230F4E0910202F0E0EE51FE4F16
:100F300010826091020270E0E091E001F091E10125
:100F400082EE91E009951092020236C084E080930F
:100F500036021092DF011092DE01E091DC01F09187
:100F6000DD0109958091DE01811105C081E080934A
:100F7000DE011092BC01E091DF0181E08E0F8093D1
:100F8000DF01F0E0E454FE4F80818093BB0090913C
:100F9000DF018091DE01981708F479CF85E880930E
:100FA000BC000AC085EC8093BC001092360204C0DD
:100FB000109234020E94EB02FF91EF91BF91AF912A
:100FC0009F918F917F916F915F914F913F912F9161
:100FD0000F900FBE0F901F901895009769F0FC01BD
:100FE00001900020E9F73197AF01481B590BBC0174
:100FF00089E592E00C948C0080E090E00895CF9316
:10100000DF930E94ED07EC0183E691E00E94ED077B
:101010008C0F9D1FDF91CF9108958F929F92AF9279
:10102000BF920F931F93CF93DF93CDB7DEB7A197F6
:101030000FB6F894DEBF0FBECDBF19A2423008F440
:101040004AE08E010F5D1F4F842E912CA12CB12CF4
:10105000A50194010E947F0BE62FB901CA0101503E
:101060001109EA3014F4E05D01C0E95CD801EC93A9
:10107000232B242B252B61F7C8010E94ED07A19695
:101080000FB6F894DEBF0FBECDBFDF91CF911F9199
:101090000F91BF90AF909F908F900895CF92DF9265
:1010A000EF92FF92CF93DF936C01990FEE08FF0848
:1010B000F7FE1AC0E0915902F0915A020190F081B6
:1010C000E02D6DE289E592E00995EC01662777272E
:1010D000CB016C197D098E099F094AE00E940D0819
:1010E0007C01EC0EFD1E06C04AE0C701B6010E945D
:1010F0000D087C0183E691E00E94ED078E0D9F1D97
:10110000DF91CF91FF90EF90DF90CF900895809185
:1011100036028111FCCF842F413208F080E291E049
:1011200090933602909335022FEF20933402109261
:101130003302280F209332029093310290913102B2
:10114000660F692B6093310290913002913061F407
:1011500010923002909131029093BB009091BC00AC
:1011600093FDF8CF95EC01C095EE9093BC00909163
:1011700036029130E1F390913302981710F4809188
:101180003302A0E1B2E029E332E0F9019E2F921B85
:10119000981718F49D919193F9CF1092380280938B
:1011A00037020895CF93DF9300D000D0CDB7DEB7DC
:1011B000789484B5826084BD84B5816084BD85B532
:1011C000826085BD85B5816085BD80916E0081603E
:1011D00080936E00109281008091810082608093E4
:1011E00081008091810081608093810080918000E6
:1011F0008160809380008091B10084608093B10011
:101200008091B00081608093B00080917A0084600A
:1012100080937A0080917A00826080937A00809136
:101220007A00816080937A0080917A008068809350
:101230007A001092C10061E086E00E94140261E031
:1012400087E00E94140261E08DE00E94140260E0D9
:101250008CE00E94140262E084E00E94140262E0CA
:1012600085E00E941402E0916902F0916A0212E0A6
:101270001083E0916502F09166021082E0916702AE
:10128000F09168028FEC808310927102E0916D0200
:10129000F0916E0286E08083E0916B02F0916C0227
:1012A000808180618083E0916B02F0916C0280818B
:1012B00088608083E0916B02F0916C02808180688D
:1012C0008083E0916B02F0916C0280818F7D80833E
:1012D0008091550390915603DC01ED91FC910190B2
:1012E000F081E02D09958091550390915603DC0122
:1012F000ED91FC910280F381E02D09951093150387
:101300008091550390915603DC01ED91FC9104808E
:10131000F581E02D00E020E030E041E065E173E0A0
:101320000995811131C08091550390915603DC01DC
:10133000ED91FC910680F781E02D28EE33E040E44A
:1013400065E173E0099597FD1FC0C0901503D12C8E
:10135000E12CF12CFE2CED2CDC2CCC2480911603FE
:10136000C82AFE2CED2CDC2CCC2480911703C82A33
:10137000FE2CED2CDC2CCC2480911803C82AC1143F
:10138000D104E104F10429F48CE391E00E94ED071B
:10139000FFCF84E591E00E94ED076F2D7727882726
:1013A000992740E10E940D0883E691E00E94ED0735
:1013B00086E691E00E94ED076E2D70E080E090E0FF
:1013C0004AE00E940D08E0915902F0915A02019002
:1013D000F081E02D6EE289E592E009956D2D70E0D7
:1013E00080E090E04AE00E940D0883E691E00E94D0
:1013F000ED0782E38093150385E0809316038FEF5A
:101400008093170391E090931803809319038091C0
:10141000550390915603DC01ED91FC910480F58118
:10142000E02D00E020E030E045E065E173E0099563
:10143000811110C08091550390915603DC01ED910C
:10144000FC910680F781E02D28EE33E040E465E171
:1014500073E0099594E19093150381E0809316035E
:10146000909317038093180380915503909156032E
:10147000DC01ED91FC910480F581E02D00E020E09D
:1014800030E044E065E173E00995811110C080917E
:10149000550390915603DC01ED91FC910680F78194
:1014A000E02D28EE33E040E465E173E0099585E73F
:1014B00091E00E94FF071AE477247394CE0101960D
:1014C0004C0119821A821B821C8285E00E94BB019A
:1014D0006C0184E00E94BB015C018CE00E94BB01B6
:1014E0007C010E944E08109315037092160310920F
:1014F00017038091550390915603DC01ED91FC9107
:101500000480F581E02D00E020E030E043E065E17B
:1015100073E00995811156C080915503909156034F
:10152000DC01ED91FC910680F781E02D28EE33E09F
:1015300040E465E173E0099597FD44C0809115038F
:10154000813009F03FC080911A03ABE1B3E0F401B0
:101550009E2F9819981718F49D919193F9CF89812E
:10156000863709F078C08A818D3D09F074C08B817F
:10157000893509F070C08C818F3109F06CC0C701CA
:101580000E944E0883E991E00E94FF07A114B10474
:1015900011F1CD28B9F4E114F10491F561E08DE089
:1015A0000E94E40160E086E00E94E40161E070E0F6
:1015B00080E090E00E94750261E087E00E94E40113
:1015C000AB28D1F162E370E080E090E00E94750208
:1015D0000E94880176CFB1E0EB16F10449F561E095
:1015E00086E00E94E40161E070E080E090E00E940B
:1015F000750260E087E00E94E401CD2821F01AC066
:10160000EA94EF28F9F660E086E00E94E40161E0E8
:1016100070E080E090E00E94750260E087E00E9448
:10162000E40168E873E180E090E00E947502CACFAF
:10163000CD28B1F0EF2831F660E086E00E94E401A9
:1016400061E070E080E090E00E94750260E087E079
:101650000E94E401B7CF88E991E00E94FF07B2CF72
:10166000E114F10439F79ACFE9E5F2E0138212822E
:1016700048EE53E060E070E04483558366837783EF
:1016800080E191E09183808385EC90E09587848769
:1016900084EC90E09787868780EC90E0918B808B3C
:1016A00081EC90E0938B828B82EC90E0958B848B25
:1016B00086EC90E0978B868B118E128E138E148E93
:1016C000A7E5B3E013961C921E92129714964D93C1
:1016D0005D936D937C93179782E291E011969C93B2
:1016E0008E93E3E6F3E084E391E091838083B38318
:1016F000A2831482F0935603E09355030895A1E268
:101700001A2EAA1BBB1BFD010DC0AA1FBB1FEE1F7B
:10171000FF1FA217B307E407F50720F0A21BB30BC6
:10172000E40BF50B661F771F881F991F1A9469F742
:1017300060957095809590959B01AC01BD01CF019E
:101740000895EE0FFF1F0590F491E02D099481E0BC
:1017500090E0F8940C94B90BFB01DC0104C08D916E
:101760000190801921F441505040C8F7881B990B13
:061770000895F894FFCF7C
:101776000000FFFF00000000FF00FF000000000067
:101786001F018C00B7006601E800C600DA00000001
:1017960000007903490306041D0341032D031E03BC
:1017A60000000000C502BF0232050B044469646EE6
:1017B60027742066696E6420504E35337820626F38
:1017C60061726400466F756E6420636869702050AC
:1017D6004E35000D0A004669726D77617265207696
:1017E60065722E200057616974696E6720666F7294
:1017F60020616E2049534F313434343341206361C4
:0C180600726400676F6F64006261640030
:00000001FF
